{
    "contractName": "RecieveFallbackExample",
    "abi": [
        {
            "stateMutability": "payable",
            "type": "fallback"
        },
        {
            "inputs": [],
            "name": "result",
            "outputs": [
                {
                    "internalType": "uint256",
                    "name": "",
                    "type": "uint256"
                }
            ],
            "stateMutability": "view",
            "type": "function"
        },
        {
            "stateMutability": "payable",
            "type": "receive"
        }
    ],
    "bytecode": "60808060405234601357607f908160188239f35b5f80fdfe60808060405260043610156020575b503615601a5760015f55005b60025f55005b5f3560e01c636537214703600e57346045575f3660031901126045576020905f548152f35b5f80fdfea26469706673582212207cee86df04c1b88869a87e4839868034aff26fcdaa004d38afe8ae6f92a341e664736f6c634300081b0033",
    "sourcePath": "c:/workspaces/solidity-101/contracts/recievefallback/RecieveFallbackExample.sol",
    "compiler": {
        "name": "solc",
        "version": "0.8.27+commit.40a35a09"
    },
    "functionHashes": {
        "result()": "65372147"
    },
    "gasEstimates": {
        "creation": {
            "codeDepositCost": "25400",
            "executionCost": "81",
            "totalCost": "25481"
        },
        "external": {
            "": "22203",
            "result()": "2240"
        }
    }
}