{
    "contractName": "FundMe",
    "abi": [
        {
            "inputs": [],
            "name": "fund",
            "outputs": [],
            "stateMutability": "payable",
            "type": "function"
        },
        {
            "inputs": [],
            "name": "minimumUSD",
            "outputs": [
                {
                    "internalType": "uint256",
                    "name": "",
                    "type": "uint256"
                }
            ],
            "stateMutability": "view",
            "type": "function"
        },
        {
            "inputs": [],
            "name": "myVal",
            "outputs": [
                {
                    "internalType": "uint256",
                    "name": "",
                    "type": "uint256"
                }
            ],
            "stateMutability": "view",
            "type": "function"
        }
    ],
    "bytecode": "60808060405234601e5760015f55600560015561012790816100238239f35b5f80fdfe60808060405260043610156011575f80fd5b5f3560e01c9081633430a88c1460d957508063b60d42881460575763ed32ca32146039575f80fd5b346053575f36600319011260535760205f54604051908152f35b5f80fd5b5f3660031901126053575f546002810180911160c5575f55670de0b6b3a7640000341115608057005b60405162461bcd60e51b815260206004820152601960248201527f4469646e27742073656e6420656e6f756768204554482e2e2e000000000000006044820152606490fd5b634e487b7160e01b5f52601160045260245ffd5b346053575f3660031901126053576020906001548152f3fea2646970667358221220305fece9e27e90a8571e10077780ef0bb707c65627c7ac5abb5f87d6fac33f7464736f6c634300081b0033",
    "sourcePath": "c:/workspaces/solidity-101/contracts/fundme/FundMe.sol",
    "compiler": {
        "name": "solc",
        "version": "0.8.27+commit.40a35a09"
    },
    "functionHashes": {
        "fund()": "b60d4288",
        "minimumUSD()": "3430a88c",
        "myVal()": "ed32ca32"
    },
    "gasEstimates": {
        "creation": {
            "codeDepositCost": "59000",
            "executionCost": "44328",
            "totalCost": "103328"
        },
        "external": {
            "fund()": "24483",
            "minimumUSD()": "2248",
            "myVal()": "2296"
        }
    }
}