{
	"data": {
		"bytecode": {
			"linkReferences": {},
			"object": "608060405260016000806101000a81548160ff0219169083151502179055506040518060400160405280600281526020017f38380000000000000000000000000000000000000000000000000000000000008152506001908162000064919062000390565b507fffffffffffffffffffffffffffffffffffffffffffffffffffffffffffffffa860025573c61d69b07f84fce21d65fd35004b4d851a92db9b600360006101000a81548173ffffffffffffffffffffffffffffffffffffffff021916908373ffffffffffffffffffffffffffffffffffffffff1602179055507f646f6700000000000000000000000000000000000000000000000000000000006004553480156200010f57600080fd5b5062000477565b600081519050919050565b7f4e487b7100000000000000000000000000000000000000000000000000000000600052604160045260246000fd5b7f4e487b7100000000000000000000000000000000000000000000000000000000600052602260045260246000fd5b600060028204905060018216806200019857607f821691505b602082108103620001ae57620001ad62000150565b5b50919050565b60008190508160005260206000209050919050565b60006020601f8301049050919050565b600082821b905092915050565b600060088302620002187fffffffffffffffffffffffffffffffffffffffffffffffffffffffffffffffff82620001d9565b620002248683620001d9565b95508019841693508086168417925050509392505050565b6000819050919050565b6000819050919050565b6000620002716200026b62000265846200023c565b62000246565b6200023c565b9050919050565b6000819050919050565b6200028d8362000250565b620002a56200029c8262000278565b848454620001e6565b825550505050565b600090565b620002bc620002ad565b620002c981848462000282565b505050565b5b81811015620002f157620002e5600082620002b2565b600181019050620002cf565b5050565b601f82111562000340576200030a81620001b4565b6200031584620001c9565b8101602085101562000325578190505b6200033d6200033485620001c9565b830182620002ce565b50505b505050565b600082821c905092915050565b6000620003656000198460080262000345565b1980831691505092915050565b600062000380838362000352565b9150826002028217905092915050565b6200039b8262000116565b67ffffffffffffffff811115620003b757620003b662000121565b5b620003c382546200017f565b620003d0828285620002f5565b600060209050601f831160018114620004085760008415620003f3578287015190505b620003ff858262000372565b8655506200046f565b601f1984166200041886620001b4565b60005b8281101562000442578489015182556001820191506020850194506020810190506200041b565b868310156200046257848901516200045e601f89168262000352565b8355505b6001600288020188555050505b505050505050565b610a3980620004876000396000f3fe608060405234801561001057600080fd5b50600436106100625760003560e01c80632e64cec1146100675780632ebce631146100855780636057361d146100b65780636f760f41146100d25780638bab8dd5146100ee578063ef5fb05b1461011e575b600080fd5b61006f61013c565b60405161007c919061032b565b60405180910390f35b61009f600480360381019061009a9190610386565b610146565b6040516100ad929190610443565b60405180910390f35b6100d060048036038101906100cb9190610386565b610202565b005b6100ec60048036038101906100e791906105a8565b610218565b005b61010860048036038101906101039190610604565b6102a7565b604051610115919061032b565b60405180910390f35b6101266102d5565b604051610133919061064d565b60405180910390f35b6000600554905090565b6007818154811061015657600080fd5b906000526020600020906002020160009150905080600001549080600101805461017f9061069e565b80601f01602080910402602001604051908101604052809291908181526020018280546101ab9061069e565b80156101f85780601f106101cd576101008083540402835291602001916101f8565b820191906000526020600020905b8154815290600101906020018083116101db57829003601f168201915b5050505050905082565b60058161020f91906106fe565b60058190555050565b60006040518060400160405280838152602001848152509050600781908060018154018082558091505060019003906000526020600020906002020160009091909190915060008201518160000155602082015181600101908161027c91906108de565b5050508160088460405161029091906109ec565b908152602001604051809103902081905550505050565b6008818051602081018201805184825260208301602085012081835280955050505050506000915090505481565b60606040518060400160405280600581526020017f48656c6c6f000000000000000000000000000000000000000000000000000000815250905090565b6000819050919050565b61032581610312565b82525050565b6000602082019050610340600083018461031c565b92915050565b6000604051905090565b600080fd5b600080fd5b61036381610312565b811461036e57600080fd5b50565b6000813590506103808161035a565b92915050565b60006020828403121561039c5761039b610350565b5b60006103aa84828501610371565b91505092915050565b600081519050919050565b600082825260208201905092915050565b60005b838110156103ed5780820151818401526020810190506103d2565b60008484015250505050565b6000601f19601f8301169050919050565b6000610415826103b3565b61041f81856103be565b935061042f8185602086016103cf565b610438816103f9565b840191505092915050565b6000604082019050610458600083018561031c565b818103602083015261046a818461040a565b90509392505050565b600080fd5b600080fd5b7f4e487b7100000000000000000000000000000000000000000000000000000000600052604160045260246000fd5b6104b5826103f9565b810181811067ffffffffffffffff821117156104d4576104d361047d565b5b80604052505050565b60006104e7610346565b90506104f382826104ac565b919050565b600067ffffffffffffffff8211156105135761051261047d565b5b61051c826103f9565b9050602081019050919050565b82818337600083830152505050565b600061054b610546846104f8565b6104dd565b90508281526020810184848401111561056757610566610478565b5b610572848285610529565b509392505050565b600082601f83011261058f5761058e610473565b5b813561059f848260208601610538565b91505092915050565b600080604083850312156105bf576105be610350565b5b600083013567ffffffffffffffff8111156105dd576105dc610355565b5b6105e98582860161057a565b92505060206105fa85828601610371565b9150509250929050565b60006020828403121561061a57610619610350565b5b600082013567ffffffffffffffff81111561063857610637610355565b5b6106448482850161057a565b91505092915050565b60006020820190508181036000830152610667818461040a565b905092915050565b7f4e487b7100000000000000000000000000000000000000000000000000000000600052602260045260246000fd5b600060028204905060018216806106b657607f821691505b6020821081036106c9576106c861066f565b5b50919050565b7f4e487b7100000000000000000000000000000000000000000000000000000000600052601160045260246000fd5b600061070982610312565b915061071483610312565b925082820190508082111561072c5761072b6106cf565b5b92915050565b60008190508160005260206000209050919050565b60006020601f8301049050919050565b600082821b905092915050565b6000600883026107947fffffffffffffffffffffffffffffffffffffffffffffffffffffffffffffffff82610757565b61079e8683610757565b95508019841693508086168417925050509392505050565b6000819050919050565b60006107db6107d66107d184610312565b6107b6565b610312565b9050919050565b6000819050919050565b6107f5836107c0565b610809610801826107e2565b848454610764565b825550505050565b600090565b61081e610811565b6108298184846107ec565b505050565b5b8181101561084d57610842600082610816565b60018101905061082f565b5050565b601f8211156108925761086381610732565b61086c84610747565b8101602085101561087b578190505b61088f61088785610747565b83018261082e565b50505b505050565b600082821c905092915050565b60006108b560001984600802610897565b1980831691505092915050565b60006108ce83836108a4565b9150826002028217905092915050565b6108e7826103b3565b67ffffffffffffffff811115610900576108ff61047d565b5b61090a825461069e565b610915828285610851565b600060209050601f8311600181146109485760008415610936578287015190505b61094085826108c2565b8655506109a8565b601f19841661095686610732565b60005b8281101561097e57848901518255600182019150602085019450602081019050610959565b8683101561099b5784890151610997601f8916826108a4565b8355505b6001600288020188555050505b505050505050565b600081905092915050565b60006109c6826103b3565b6109d081856109b0565b93506109e08185602086016103cf565b80840191505092915050565b60006109f882846109bb565b91508190509291505056fea264697066735822122098db9f843eb58156618b730b0b5e44f38ab3947b87c2fba37a375c28d196b94764736f6c63430008130033",
			"opcodes": "PUSH1 0x80 PUSH1 0x40 MSTORE PUSH1 0x1 PUSH1 0x0 DUP1 PUSH2 0x100 EXP DUP2 SLOAD DUP2 PUSH1 0xFF MUL NOT AND SWAP1 DUP4 ISZERO ISZERO MUL OR SWAP1 SSTORE POP PUSH1 0x40 MLOAD DUP1 PUSH1 0x40 ADD PUSH1 0x40 MSTORE DUP1 PUSH1 0x2 DUP2 MSTORE PUSH1 0x20 ADD PUSH32 0x3838000000000000000000000000000000000000000000000000000000000000 DUP2 MSTORE POP PUSH1 0x1 SWAP1 DUP2 PUSH3 0x64 SWAP2 SWAP1 PUSH3 0x390 JUMP JUMPDEST POP PUSH32 0xFFFFFFFFFFFFFFFFFFFFFFFFFFFFFFFFFFFFFFFFFFFFFFFFFFFFFFFFFFFFFFA8 PUSH1 0x2 SSTORE PUSH20 0xC61D69B07F84FCE21D65FD35004B4D851A92DB9B PUSH1 0x3 PUSH1 0x0 PUSH2 0x100 EXP DUP2 SLOAD DUP2 PUSH20 0xFFFFFFFFFFFFFFFFFFFFFFFFFFFFFFFFFFFFFFFF MUL NOT AND SWAP1 DUP4 PUSH20 0xFFFFFFFFFFFFFFFFFFFFFFFFFFFFFFFFFFFFFFFF AND MUL OR SWAP1 SSTORE POP PUSH32 0x646F670000000000000000000000000000000000000000000000000000000000 PUSH1 0x4 SSTORE CALLVALUE DUP1 ISZERO PUSH3 0x10F JUMPI PUSH1 0x0 DUP1 REVERT JUMPDEST POP PUSH3 0x477 JUMP JUMPDEST PUSH1 0x0 DUP2 MLOAD SWAP1 POP SWAP2 SWAP1 POP JUMP JUMPDEST PUSH32 0x4E487B7100000000000000000000000000000000000000000000000000000000 PUSH1 0x0 MSTORE PUSH1 0x41 PUSH1 0x4 MSTORE PUSH1 0x24 PUSH1 0x0 REVERT JUMPDEST PUSH32 0x4E487B7100000000000000000000000000000000000000000000000000000000 PUSH1 0x0 MSTORE PUSH1 0x22 PUSH1 0x4 MSTORE PUSH1 0x24 PUSH1 0x0 REVERT JUMPDEST PUSH1 0x0 PUSH1 0x2 DUP3 DIV SWAP1 POP PUSH1 0x1 DUP3 AND DUP1 PUSH3 0x198 JUMPI PUSH1 0x7F DUP3 AND SWAP2 POP JUMPDEST PUSH1 0x20 DUP3 LT DUP2 SUB PUSH3 0x1AE JUMPI PUSH3 0x1AD PUSH3 0x150 JUMP JUMPDEST JUMPDEST POP SWAP2 SWAP1 POP JUMP JUMPDEST PUSH1 0x0 DUP2 SWAP1 POP DUP2 PUSH1 0x0 MSTORE PUSH1 0x20 PUSH1 0x0 KECCAK256 SWAP1 POP SWAP2 SWAP1 POP JUMP JUMPDEST PUSH1 0x0 PUSH1 0x20 PUSH1 0x1F DUP4 ADD DIV SWAP1 POP SWAP2 SWAP1 POP JUMP JUMPDEST PUSH1 0x0 DUP3 DUP3 SHL SWAP1 POP SWAP3 SWAP2 POP POP JUMP JUMPDEST PUSH1 0x0 PUSH1 0x8 DUP4 MUL PUSH3 0x218 PUSH32 0xFFFFFFFFFFFFFFFFFFFFFFFFFFFFFFFFFFFFFFFFFFFFFFFFFFFFFFFFFFFFFFFF DUP3 PUSH3 0x1D9 JUMP JUMPDEST PUSH3 0x224 DUP7 DUP4 PUSH3 0x1D9 JUMP JUMPDEST SWAP6 POP DUP1 NOT DUP5 AND SWAP4 POP DUP1 DUP7 AND DUP5 OR SWAP3 POP POP POP SWAP4 SWAP3 POP POP POP JUMP JUMPDEST PUSH1 0x0 DUP2 SWAP1 POP SWAP2 SWAP1 POP JUMP JUMPDEST PUSH1 0x0 DUP2 SWAP1 POP SWAP2 SWAP1 POP JUMP JUMPDEST PUSH1 0x0 PUSH3 0x271 PUSH3 0x26B PUSH3 0x265 DUP5 PUSH3 0x23C JUMP JUMPDEST PUSH3 0x246 JUMP JUMPDEST PUSH3 0x23C JUMP JUMPDEST SWAP1 POP SWAP2 SWAP1 POP JUMP JUMPDEST PUSH1 0x0 DUP2 SWAP1 POP SWAP2 SWAP1 POP JUMP JUMPDEST PUSH3 0x28D DUP4 PUSH3 0x250 JUMP JUMPDEST PUSH3 0x2A5 PUSH3 0x29C DUP3 PUSH3 0x278 JUMP JUMPDEST DUP5 DUP5 SLOAD PUSH3 0x1E6 JUMP JUMPDEST DUP3 SSTORE POP POP POP POP JUMP JUMPDEST PUSH1 0x0 SWAP1 JUMP JUMPDEST PUSH3 0x2BC PUSH3 0x2AD JUMP JUMPDEST PUSH3 0x2C9 DUP2 DUP5 DUP5 PUSH3 0x282 JUMP JUMPDEST POP POP POP JUMP JUMPDEST JUMPDEST DUP2 DUP2 LT ISZERO PUSH3 0x2F1 JUMPI PUSH3 0x2E5 PUSH1 0x0 DUP3 PUSH3 0x2B2 JUMP JUMPDEST PUSH1 0x1 DUP2 ADD SWAP1 POP PUSH3 0x2CF JUMP JUMPDEST POP POP JUMP JUMPDEST PUSH1 0x1F DUP3 GT ISZERO PUSH3 0x340 JUMPI PUSH3 0x30A DUP2 PUSH3 0x1B4 JUMP JUMPDEST PUSH3 0x315 DUP5 PUSH3 0x1C9 JUMP JUMPDEST DUP2 ADD PUSH1 0x20 DUP6 LT ISZERO PUSH3 0x325 JUMPI DUP2 SWAP1 POP JUMPDEST PUSH3 0x33D PUSH3 0x334 DUP6 PUSH3 0x1C9 JUMP JUMPDEST DUP4 ADD DUP3 PUSH3 0x2CE JUMP JUMPDEST POP POP JUMPDEST POP POP POP JUMP JUMPDEST PUSH1 0x0 DUP3 DUP3 SHR SWAP1 POP SWAP3 SWAP2 POP POP JUMP JUMPDEST PUSH1 0x0 PUSH3 0x365 PUSH1 0x0 NOT DUP5 PUSH1 0x8 MUL PUSH3 0x345 JUMP JUMPDEST NOT DUP1 DUP4 AND SWAP2 POP POP SWAP3 SWAP2 POP POP JUMP JUMPDEST PUSH1 0x0 PUSH3 0x380 DUP4 DUP4 PUSH3 0x352 JUMP JUMPDEST SWAP2 POP DUP3 PUSH1 0x2 MUL DUP3 OR SWAP1 POP SWAP3 SWAP2 POP POP JUMP JUMPDEST PUSH3 0x39B DUP3 PUSH3 0x116 JUMP JUMPDEST PUSH8 0xFFFFFFFFFFFFFFFF DUP2 GT ISZERO PUSH3 0x3B7 JUMPI PUSH3 0x3B6 PUSH3 0x121 JUMP JUMPDEST JUMPDEST PUSH3 0x3C3 DUP3 SLOAD PUSH3 0x17F JUMP JUMPDEST PUSH3 0x3D0 DUP3 DUP3 DUP6 PUSH3 0x2F5 JUMP JUMPDEST PUSH1 0x0 PUSH1 0x20 SWAP1 POP PUSH1 0x1F DUP4 GT PUSH1 0x1 DUP2 EQ PUSH3 0x408 JUMPI PUSH1 0x0 DUP5 ISZERO PUSH3 0x3F3 JUMPI DUP3 DUP8 ADD MLOAD SWAP1 POP JUMPDEST PUSH3 0x3FF DUP6 DUP3 PUSH3 0x372 JUMP JUMPDEST DUP7 SSTORE POP PUSH3 0x46F JUMP JUMPDEST PUSH1 0x1F NOT DUP5 AND PUSH3 0x418 DUP7 PUSH3 0x1B4 JUMP JUMPDEST PUSH1 0x0 JUMPDEST DUP3 DUP2 LT ISZERO PUSH3 0x442 JUMPI DUP5 DUP10 ADD MLOAD DUP3 SSTORE PUSH1 0x1 DUP3 ADD SWAP2 POP PUSH1 0x20 DUP6 ADD SWAP5 POP PUSH1 0x20 DUP2 ADD SWAP1 POP PUSH3 0x41B JUMP JUMPDEST DUP7 DUP4 LT ISZERO PUSH3 0x462 JUMPI DUP5 DUP10 ADD MLOAD PUSH3 0x45E PUSH1 0x1F DUP10 AND DUP3 PUSH3 0x352 JUMP JUMPDEST DUP4 SSTORE POP JUMPDEST PUSH1 0x1 PUSH1 0x2 DUP9 MUL ADD DUP9 SSTORE POP POP POP JUMPDEST POP POP POP POP POP POP JUMP JUMPDEST PUSH2 0xA39 DUP1 PUSH3 0x487 PUSH1 0x0 CODECOPY PUSH1 0x0 RETURN INVALID PUSH1 0x80 PUSH1 0x40 MSTORE CALLVALUE DUP1 ISZERO PUSH2 0x10 JUMPI PUSH1 0x0 DUP1 REVERT JUMPDEST POP PUSH1 0x4 CALLDATASIZE LT PUSH2 0x62 JUMPI PUSH1 0x0 CALLDATALOAD PUSH1 0xE0 SHR DUP1 PUSH4 0x2E64CEC1 EQ PUSH2 0x67 JUMPI DUP1 PUSH4 0x2EBCE631 EQ PUSH2 0x85 JUMPI DUP1 PUSH4 0x6057361D EQ PUSH2 0xB6 JUMPI DUP1 PUSH4 0x6F760F41 EQ PUSH2 0xD2 JUMPI DUP1 PUSH4 0x8BAB8DD5 EQ PUSH2 0xEE JUMPI DUP1 PUSH4 0xEF5FB05B EQ PUSH2 0x11E JUMPI JUMPDEST PUSH1 0x0 DUP1 REVERT JUMPDEST PUSH2 0x6F PUSH2 0x13C JUMP JUMPDEST PUSH1 0x40 MLOAD PUSH2 0x7C SWAP2 SWAP1 PUSH2 0x32B JUMP JUMPDEST PUSH1 0x40 MLOAD DUP1 SWAP2 SUB SWAP1 RETURN JUMPDEST PUSH2 0x9F PUSH1 0x4 DUP1 CALLDATASIZE SUB DUP2 ADD SWAP1 PUSH2 0x9A SWAP2 SWAP1 PUSH2 0x386 JUMP JUMPDEST PUSH2 0x146 JUMP JUMPDEST PUSH1 0x40 MLOAD PUSH2 0xAD SWAP3 SWAP2 SWAP1 PUSH2 0x443 JUMP JUMPDEST PUSH1 0x40 MLOAD DUP1 SWAP2 SUB SWAP1 RETURN JUMPDEST PUSH2 0xD0 PUSH1 0x4 DUP1 CALLDATASIZE SUB DUP2 ADD SWAP1 PUSH2 0xCB SWAP2 SWAP1 PUSH2 0x386 JUMP JUMPDEST PUSH2 0x202 JUMP JUMPDEST STOP JUMPDEST PUSH2 0xEC PUSH1 0x4 DUP1 CALLDATASIZE SUB DUP2 ADD SWAP1 PUSH2 0xE7 SWAP2 SWAP1 PUSH2 0x5A8 JUMP JUMPDEST PUSH2 0x218 JUMP JUMPDEST STOP JUMPDEST PUSH2 0x108 PUSH1 0x4 DUP1 CALLDATASIZE SUB DUP2 ADD SWAP1 PUSH2 0x103 SWAP2 SWAP1 PUSH2 0x604 JUMP JUMPDEST PUSH2 0x2A7 JUMP JUMPDEST PUSH1 0x40 MLOAD PUSH2 0x115 SWAP2 SWAP1 PUSH2 0x32B JUMP JUMPDEST PUSH1 0x40 MLOAD DUP1 SWAP2 SUB SWAP1 RETURN JUMPDEST PUSH2 0x126 PUSH2 0x2D5 JUMP JUMPDEST PUSH1 0x40 MLOAD PUSH2 0x133 SWAP2 SWAP1 PUSH2 0x64D JUMP JUMPDEST PUSH1 0x40 MLOAD DUP1 SWAP2 SUB SWAP1 RETURN JUMPDEST PUSH1 0x0 PUSH1 0x5 SLOAD SWAP1 POP SWAP1 JUMP JUMPDEST PUSH1 0x7 DUP2 DUP2 SLOAD DUP2 LT PUSH2 0x156 JUMPI PUSH1 0x0 DUP1 REVERT JUMPDEST SWAP1 PUSH1 0x0 MSTORE PUSH1 0x20 PUSH1 0x0 KECCAK256 SWAP1 PUSH1 0x2 MUL ADD PUSH1 0x0 SWAP2 POP SWAP1 POP DUP1 PUSH1 0x0 ADD SLOAD SWAP1 DUP1 PUSH1 0x1 ADD DUP1 SLOAD PUSH2 0x17F SWAP1 PUSH2 0x69E JUMP JUMPDEST DUP1 PUSH1 0x1F ADD PUSH1 0x20 DUP1 SWAP2 DIV MUL PUSH1 0x20 ADD PUSH1 0x40 MLOAD SWAP1 DUP2 ADD PUSH1 0x40 MSTORE DUP1 SWAP3 SWAP2 SWAP1 DUP2 DUP2 MSTORE PUSH1 0x20 ADD DUP3 DUP1 SLOAD PUSH2 0x1AB SWAP1 PUSH2 0x69E JUMP JUMPDEST DUP1 ISZERO PUSH2 0x1F8 JUMPI DUP1 PUSH1 0x1F LT PUSH2 0x1CD JUMPI PUSH2 0x100 DUP1 DUP4 SLOAD DIV MUL DUP4 MSTORE SWAP2 PUSH1 0x20 ADD SWAP2 PUSH2 0x1F8 JUMP JUMPDEST DUP3 ADD SWAP2 SWAP1 PUSH1 0x0 MSTORE PUSH1 0x20 PUSH1 0x0 KECCAK256 SWAP1 JUMPDEST DUP2 SLOAD DUP2 MSTORE SWAP1 PUSH1 0x1 ADD SWAP1 PUSH1 0x20 ADD DUP1 DUP4 GT PUSH2 0x1DB JUMPI DUP3 SWAP1 SUB PUSH1 0x1F AND DUP3 ADD SWAP2 JUMPDEST POP POP POP POP POP SWAP1 POP DUP3 JUMP JUMPDEST PUSH1 0x5 DUP2 PUSH2 0x20F SWAP2 SWAP1 PUSH2 0x6FE JUMP JUMPDEST PUSH1 0x5 DUP2 SWAP1 SSTORE POP POP JUMP JUMPDEST PUSH1 0x0 PUSH1 0x40 MLOAD DUP1 PUSH1 0x40 ADD PUSH1 0x40 MSTORE DUP1 DUP4 DUP2 MSTORE PUSH1 0x20 ADD DUP5 DUP2 MSTORE POP SWAP1 POP PUSH1 0x7 DUP2 SWAP1 DUP1 PUSH1 0x1 DUP2 SLOAD ADD DUP1 DUP3 SSTORE DUP1 SWAP2 POP POP PUSH1 0x1 SWAP1 SUB SWAP1 PUSH1 0x0 MSTORE PUSH1 0x20 PUSH1 0x0 KECCAK256 SWAP1 PUSH1 0x2 MUL ADD PUSH1 0x0 SWAP1 SWAP2 SWAP1 SWAP2 SWAP1 SWAP2 POP PUSH1 0x0 DUP3 ADD MLOAD DUP2 PUSH1 0x0 ADD SSTORE PUSH1 0x20 DUP3 ADD MLOAD DUP2 PUSH1 0x1 ADD SWAP1 DUP2 PUSH2 0x27C SWAP2 SWAP1 PUSH2 0x8DE JUMP JUMPDEST POP POP POP DUP2 PUSH1 0x8 DUP5 PUSH1 0x40 MLOAD PUSH2 0x290 SWAP2 SWAP1 PUSH2 0x9EC JUMP JUMPDEST SWAP1 DUP2 MSTORE PUSH1 0x20 ADD PUSH1 0x40 MLOAD DUP1 SWAP2 SUB SWAP1 KECCAK256 DUP2 SWAP1 SSTORE POP POP POP POP JUMP JUMPDEST PUSH1 0x8 DUP2 DUP1 MLOAD PUSH1 0x20 DUP2 ADD DUP3 ADD DUP1 MLOAD DUP5 DUP3 MSTORE PUSH1 0x20 DUP4 ADD PUSH1 0x20 DUP6 ADD KECCAK256 DUP2 DUP4 MSTORE DUP1 SWAP6 POP POP POP POP POP POP PUSH1 0x0 SWAP2 POP SWAP1 POP SLOAD DUP2 JUMP JUMPDEST PUSH1 0x60 PUSH1 0x40 MLOAD DUP1 PUSH1 0x40 ADD PUSH1 0x40 MSTORE DUP1 PUSH1 0x5 DUP2 MSTORE PUSH1 0x20 ADD PUSH32 0x48656C6C6F000000000000000000000000000000000000000000000000000000 DUP2 MSTORE POP SWAP1 POP SWAP1 JUMP JUMPDEST PUSH1 0x0 DUP2 SWAP1 POP SWAP2 SWAP1 POP JUMP JUMPDEST PUSH2 0x325 DUP2 PUSH2 0x312 JUMP JUMPDEST DUP3 MSTORE POP POP JUMP JUMPDEST PUSH1 0x0 PUSH1 0x20 DUP3 ADD SWAP1 POP PUSH2 0x340 PUSH1 0x0 DUP4 ADD DUP5 PUSH2 0x31C JUMP JUMPDEST SWAP3 SWAP2 POP POP JUMP JUMPDEST PUSH1 0x0 PUSH1 0x40 MLOAD SWAP1 POP SWAP1 JUMP JUMPDEST PUSH1 0x0 DUP1 REVERT JUMPDEST PUSH1 0x0 DUP1 REVERT JUMPDEST PUSH2 0x363 DUP2 PUSH2 0x312 JUMP JUMPDEST DUP2 EQ PUSH2 0x36E JUMPI PUSH1 0x0 DUP1 REVERT JUMPDEST POP JUMP JUMPDEST PUSH1 0x0 DUP2 CALLDATALOAD SWAP1 POP PUSH2 0x380 DUP2 PUSH2 0x35A JUMP JUMPDEST SWAP3 SWAP2 POP POP JUMP JUMPDEST PUSH1 0x0 PUSH1 0x20 DUP3 DUP5 SUB SLT ISZERO PUSH2 0x39C JUMPI PUSH2 0x39B PUSH2 0x350 JUMP JUMPDEST JUMPDEST PUSH1 0x0 PUSH2 0x3AA DUP5 DUP3 DUP6 ADD PUSH2 0x371 JUMP JUMPDEST SWAP2 POP POP SWAP3 SWAP2 POP POP JUMP JUMPDEST PUSH1 0x0 DUP2 MLOAD SWAP1 POP SWAP2 SWAP1 POP JUMP JUMPDEST PUSH1 0x0 DUP3 DUP3 MSTORE PUSH1 0x20 DUP3 ADD SWAP1 POP SWAP3 SWAP2 POP POP JUMP JUMPDEST PUSH1 0x0 JUMPDEST DUP4 DUP2 LT ISZERO PUSH2 0x3ED JUMPI DUP1 DUP3 ADD MLOAD DUP2 DUP5 ADD MSTORE PUSH1 0x20 DUP2 ADD SWAP1 POP PUSH2 0x3D2 JUMP JUMPDEST PUSH1 0x0 DUP5 DUP5 ADD MSTORE POP POP POP POP JUMP JUMPDEST PUSH1 0x0 PUSH1 0x1F NOT PUSH1 0x1F DUP4 ADD AND SWAP1 POP SWAP2 SWAP1 POP JUMP JUMPDEST PUSH1 0x0 PUSH2 0x415 DUP3 PUSH2 0x3B3 JUMP JUMPDEST PUSH2 0x41F DUP2 DUP6 PUSH2 0x3BE JUMP JUMPDEST SWAP4 POP PUSH2 0x42F DUP2 DUP6 PUSH1 0x20 DUP7 ADD PUSH2 0x3CF JUMP JUMPDEST PUSH2 0x438 DUP2 PUSH2 0x3F9 JUMP JUMPDEST DUP5 ADD SWAP2 POP POP SWAP3 SWAP2 POP POP JUMP JUMPDEST PUSH1 0x0 PUSH1 0x40 DUP3 ADD SWAP1 POP PUSH2 0x458 PUSH1 0x0 DUP4 ADD DUP6 PUSH2 0x31C JUMP JUMPDEST DUP2 DUP2 SUB PUSH1 0x20 DUP4 ADD MSTORE PUSH2 0x46A DUP2 DUP5 PUSH2 0x40A JUMP JUMPDEST SWAP1 POP SWAP4 SWAP3 POP POP POP JUMP JUMPDEST PUSH1 0x0 DUP1 REVERT JUMPDEST PUSH1 0x0 DUP1 REVERT JUMPDEST PUSH32 0x4E487B7100000000000000000000000000000000000000000000000000000000 PUSH1 0x0 MSTORE PUSH1 0x41 PUSH1 0x4 MSTORE PUSH1 0x24 PUSH1 0x0 REVERT JUMPDEST PUSH2 0x4B5 DUP3 PUSH2 0x3F9 JUMP JUMPDEST DUP2 ADD DUP2 DUP2 LT PUSH8 0xFFFFFFFFFFFFFFFF DUP3 GT OR ISZERO PUSH2 0x4D4 JUMPI PUSH2 0x4D3 PUSH2 0x47D JUMP JUMPDEST JUMPDEST DUP1 PUSH1 0x40 MSTORE POP POP POP JUMP JUMPDEST PUSH1 0x0 PUSH2 0x4E7 PUSH2 0x346 JUMP JUMPDEST SWAP1 POP PUSH2 0x4F3 DUP3 DUP3 PUSH2 0x4AC JUMP JUMPDEST SWAP2 SWAP1 POP JUMP JUMPDEST PUSH1 0x0 PUSH8 0xFFFFFFFFFFFFFFFF DUP3 GT ISZERO PUSH2 0x513 JUMPI PUSH2 0x512 PUSH2 0x47D JUMP JUMPDEST JUMPDEST PUSH2 0x51C DUP3 PUSH2 0x3F9 JUMP JUMPDEST SWAP1 POP PUSH1 0x20 DUP2 ADD SWAP1 POP SWAP2 SWAP1 POP JUMP JUMPDEST DUP3 DUP2 DUP4 CALLDATACOPY PUSH1 0x0 DUP4 DUP4 ADD MSTORE POP POP POP JUMP JUMPDEST PUSH1 0x0 PUSH2 0x54B PUSH2 0x546 DUP5 PUSH2 0x4F8 JUMP JUMPDEST PUSH2 0x4DD JUMP JUMPDEST SWAP1 POP DUP3 DUP2 MSTORE PUSH1 0x20 DUP2 ADD DUP5 DUP5 DUP5 ADD GT ISZERO PUSH2 0x567 JUMPI PUSH2 0x566 PUSH2 0x478 JUMP JUMPDEST JUMPDEST PUSH2 0x572 DUP5 DUP3 DUP6 PUSH2 0x529 JUMP JUMPDEST POP SWAP4 SWAP3 POP POP POP JUMP JUMPDEST PUSH1 0x0 DUP3 PUSH1 0x1F DUP4 ADD SLT PUSH2 0x58F JUMPI PUSH2 0x58E PUSH2 0x473 JUMP JUMPDEST JUMPDEST DUP2 CALLDATALOAD PUSH2 0x59F DUP5 DUP3 PUSH1 0x20 DUP7 ADD PUSH2 0x538 JUMP JUMPDEST SWAP2 POP POP SWAP3 SWAP2 POP POP JUMP JUMPDEST PUSH1 0x0 DUP1 PUSH1 0x40 DUP4 DUP6 SUB SLT ISZERO PUSH2 0x5BF JUMPI PUSH2 0x5BE PUSH2 0x350 JUMP JUMPDEST JUMPDEST PUSH1 0x0 DUP4 ADD CALLDATALOAD PUSH8 0xFFFFFFFFFFFFFFFF DUP2 GT ISZERO PUSH2 0x5DD JUMPI PUSH2 0x5DC PUSH2 0x355 JUMP JUMPDEST JUMPDEST PUSH2 0x5E9 DUP6 DUP3 DUP7 ADD PUSH2 0x57A JUMP JUMPDEST SWAP3 POP POP PUSH1 0x20 PUSH2 0x5FA DUP6 DUP3 DUP7 ADD PUSH2 0x371 JUMP JUMPDEST SWAP2 POP POP SWAP3 POP SWAP3 SWAP1 POP JUMP JUMPDEST PUSH1 0x0 PUSH1 0x20 DUP3 DUP5 SUB SLT ISZERO PUSH2 0x61A JUMPI PUSH2 0x619 PUSH2 0x350 JUMP JUMPDEST JUMPDEST PUSH1 0x0 DUP3 ADD CALLDATALOAD PUSH8 0xFFFFFFFFFFFFFFFF DUP2 GT ISZERO PUSH2 0x638 JUMPI PUSH2 0x637 PUSH2 0x355 JUMP JUMPDEST JUMPDEST PUSH2 0x644 DUP5 DUP3 DUP6 ADD PUSH2 0x57A JUMP JUMPDEST SWAP2 POP POP SWAP3 SWAP2 POP POP JUMP JUMPDEST PUSH1 0x0 PUSH1 0x20 DUP3 ADD SWAP1 POP DUP2 DUP2 SUB PUSH1 0x0 DUP4 ADD MSTORE PUSH2 0x667 DUP2 DUP5 PUSH2 0x40A JUMP JUMPDEST SWAP1 POP SWAP3 SWAP2 POP POP JUMP JUMPDEST PUSH32 0x4E487B7100000000000000000000000000000000000000000000000000000000 PUSH1 0x0 MSTORE PUSH1 0x22 PUSH1 0x4 MSTORE PUSH1 0x24 PUSH1 0x0 REVERT JUMPDEST PUSH1 0x0 PUSH1 0x2 DUP3 DIV SWAP1 POP PUSH1 0x1 DUP3 AND DUP1 PUSH2 0x6B6 JUMPI PUSH1 0x7F DUP3 AND SWAP2 POP JUMPDEST PUSH1 0x20 DUP3 LT DUP2 SUB PUSH2 0x6C9 JUMPI PUSH2 0x6C8 PUSH2 0x66F JUMP JUMPDEST JUMPDEST POP SWAP2 SWAP1 POP JUMP JUMPDEST PUSH32 0x4E487B7100000000000000000000000000000000000000000000000000000000 PUSH1 0x0 MSTORE PUSH1 0x11 PUSH1 0x4 MSTORE PUSH1 0x24 PUSH1 0x0 REVERT JUMPDEST PUSH1 0x0 PUSH2 0x709 DUP3 PUSH2 0x312 JUMP JUMPDEST SWAP2 POP PUSH2 0x714 DUP4 PUSH2 0x312 JUMP JUMPDEST SWAP3 POP DUP3 DUP3 ADD SWAP1 POP DUP1 DUP3 GT ISZERO PUSH2 0x72C JUMPI PUSH2 0x72B PUSH2 0x6CF JUMP JUMPDEST JUMPDEST SWAP3 SWAP2 POP POP JUMP JUMPDEST PUSH1 0x0 DUP2 SWAP1 POP DUP2 PUSH1 0x0 MSTORE PUSH1 0x20 PUSH1 0x0 KECCAK256 SWAP1 POP SWAP2 SWAP1 POP JUMP JUMPDEST PUSH1 0x0 PUSH1 0x20 PUSH1 0x1F DUP4 ADD DIV SWAP1 POP SWAP2 SWAP1 POP JUMP JUMPDEST PUSH1 0x0 DUP3 DUP3 SHL SWAP1 POP SWAP3 SWAP2 POP POP JUMP JUMPDEST PUSH1 0x0 PUSH1 0x8 DUP4 MUL PUSH2 0x794 PUSH32 0xFFFFFFFFFFFFFFFFFFFFFFFFFFFFFFFFFFFFFFFFFFFFFFFFFFFFFFFFFFFFFFFF DUP3 PUSH2 0x757 JUMP JUMPDEST PUSH2 0x79E DUP7 DUP4 PUSH2 0x757 JUMP JUMPDEST SWAP6 POP DUP1 NOT DUP5 AND SWAP4 POP DUP1 DUP7 AND DUP5 OR SWAP3 POP POP POP SWAP4 SWAP3 POP POP POP JUMP JUMPDEST PUSH1 0x0 DUP2 SWAP1 POP SWAP2 SWAP1 POP JUMP JUMPDEST PUSH1 0x0 PUSH2 0x7DB PUSH2 0x7D6 PUSH2 0x7D1 DUP5 PUSH2 0x312 JUMP JUMPDEST PUSH2 0x7B6 JUMP JUMPDEST PUSH2 0x312 JUMP JUMPDEST SWAP1 POP SWAP2 SWAP1 POP JUMP JUMPDEST PUSH1 0x0 DUP2 SWAP1 POP SWAP2 SWAP1 POP JUMP JUMPDEST PUSH2 0x7F5 DUP4 PUSH2 0x7C0 JUMP JUMPDEST PUSH2 0x809 PUSH2 0x801 DUP3 PUSH2 0x7E2 JUMP JUMPDEST DUP5 DUP5 SLOAD PUSH2 0x764 JUMP JUMPDEST DUP3 SSTORE POP POP POP POP JUMP JUMPDEST PUSH1 0x0 SWAP1 JUMP JUMPDEST PUSH2 0x81E PUSH2 0x811 JUMP JUMPDEST PUSH2 0x829 DUP2 DUP5 DUP5 PUSH2 0x7EC JUMP JUMPDEST POP POP POP JUMP JUMPDEST JUMPDEST DUP2 DUP2 LT ISZERO PUSH2 0x84D JUMPI PUSH2 0x842 PUSH1 0x0 DUP3 PUSH2 0x816 JUMP JUMPDEST PUSH1 0x1 DUP2 ADD SWAP1 POP PUSH2 0x82F JUMP JUMPDEST POP POP JUMP JUMPDEST PUSH1 0x1F DUP3 GT ISZERO PUSH2 0x892 JUMPI PUSH2 0x863 DUP2 PUSH2 0x732 JUMP JUMPDEST PUSH2 0x86C DUP5 PUSH2 0x747 JUMP JUMPDEST DUP2 ADD PUSH1 0x20 DUP6 LT ISZERO PUSH2 0x87B JUMPI DUP2 SWAP1 POP JUMPDEST PUSH2 0x88F PUSH2 0x887 DUP6 PUSH2 0x747 JUMP JUMPDEST DUP4 ADD DUP3 PUSH2 0x82E JUMP JUMPDEST POP POP JUMPDEST POP POP POP JUMP JUMPDEST PUSH1 0x0 DUP3 DUP3 SHR SWAP1 POP SWAP3 SWAP2 POP POP JUMP JUMPDEST PUSH1 0x0 PUSH2 0x8B5 PUSH1 0x0 NOT DUP5 PUSH1 0x8 MUL PUSH2 0x897 JUMP JUMPDEST NOT DUP1 DUP4 AND SWAP2 POP POP SWAP3 SWAP2 POP POP JUMP JUMPDEST PUSH1 0x0 PUSH2 0x8CE DUP4 DUP4 PUSH2 0x8A4 JUMP JUMPDEST SWAP2 POP DUP3 PUSH1 0x2 MUL DUP3 OR SWAP1 POP SWAP3 SWAP2 POP POP JUMP JUMPDEST PUSH2 0x8E7 DUP3 PUSH2 0x3B3 JUMP JUMPDEST PUSH8 0xFFFFFFFFFFFFFFFF DUP2 GT ISZERO PUSH2 0x900 JUMPI PUSH2 0x8FF PUSH2 0x47D JUMP JUMPDEST JUMPDEST PUSH2 0x90A DUP3 SLOAD PUSH2 0x69E JUMP JUMPDEST PUSH2 0x915 DUP3 DUP3 DUP6 PUSH2 0x851 JUMP JUMPDEST PUSH1 0x0 PUSH1 0x20 SWAP1 POP PUSH1 0x1F DUP4 GT PUSH1 0x1 DUP2 EQ PUSH2 0x948 JUMPI PUSH1 0x0 DUP5 ISZERO PUSH2 0x936 JUMPI DUP3 DUP8 ADD MLOAD SWAP1 POP JUMPDEST PUSH2 0x940 DUP6 DUP3 PUSH2 0x8C2 JUMP JUMPDEST DUP7 SSTORE POP PUSH2 0x9A8 JUMP JUMPDEST PUSH1 0x1F NOT DUP5 AND PUSH2 0x956 DUP7 PUSH2 0x732 JUMP JUMPDEST PUSH1 0x0 JUMPDEST DUP3 DUP2 LT ISZERO PUSH2 0x97E JUMPI DUP5 DUP10 ADD MLOAD DUP3 SSTORE PUSH1 0x1 DUP3 ADD SWAP2 POP PUSH1 0x20 DUP6 ADD SWAP5 POP PUSH1 0x20 DUP2 ADD SWAP1 POP PUSH2 0x959 JUMP JUMPDEST DUP7 DUP4 LT ISZERO PUSH2 0x99B JUMPI DUP5 DUP10 ADD MLOAD PUSH2 0x997 PUSH1 0x1F DUP10 AND DUP3 PUSH2 0x8A4 JUMP JUMPDEST DUP4 SSTORE POP JUMPDEST PUSH1 0x1 PUSH1 0x2 DUP9 MUL ADD DUP9 SSTORE POP POP POP JUMPDEST POP POP POP POP POP POP JUMP JUMPDEST PUSH1 0x0 DUP2 SWAP1 POP SWAP3 SWAP2 POP POP JUMP JUMPDEST PUSH1 0x0 PUSH2 0x9C6 DUP3 PUSH2 0x3B3 JUMP JUMPDEST PUSH2 0x9D0 DUP2 DUP6 PUSH2 0x9B0 JUMP JUMPDEST SWAP4 POP PUSH2 0x9E0 DUP2 DUP6 PUSH1 0x20 DUP7 ADD PUSH2 0x3CF JUMP JUMPDEST DUP1 DUP5 ADD SWAP2 POP POP SWAP3 SWAP2 POP POP JUMP JUMPDEST PUSH1 0x0 PUSH2 0x9F8 DUP3 DUP5 PUSH2 0x9BB JUMP JUMPDEST SWAP2 POP DUP2 SWAP1 POP SWAP3 SWAP2 POP POP JUMP INVALID LOG2 PUSH5 0x6970667358 0x22 SLT KECCAK256 SWAP9 0xDB SWAP16 DUP5 RETURNDATACOPY 0xB5 DUP2 JUMP PUSH2 0x8B73 SIGNEXTEND SIGNEXTEND 0x5E PREVRANDAO RETURN DUP11 0xB3 SWAP5 PUSH28 0x87C2FBA37A375C28D196B94764736F6C634300081300330000000000 "
		},
		"gasEstimates": {
			"creation": {
				"codeDepositCost": "523400",
				"executionCost": "infinite",
				"totalCost": "infinite"
			},
			"external": {
				"addPerson(string,uint256)": "infinite",
				"listOfPeople(uint256)": "infinite",
				"nameToFavoriteNumber(string)": "infinite",
				"retrieve()": "2415",
				"sayHello()": "infinite",
				"store(uint256)": "infinite"
			}
		},
		"methodIdentifiers": {
			"addPerson(string,uint256)": "6f760f41",
			"listOfPeople(uint256)": "2ebce631",
			"nameToFavoriteNumber(string)": "8bab8dd5",
			"retrieve()": "2e64cec1",
			"sayHello()": "ef5fb05b",
			"store(uint256)": "6057361d"
		}
	},
	"abi": [
		{
			"inputs": [
				{
					"internalType": "string",
					"name": "_name",
					"type": "string"
				},
				{
					"internalType": "uint256",
					"name": "_favoriteNumber",
					"type": "uint256"
				}
			],
			"name": "addPerson",
			"outputs": [],
			"stateMutability": "nonpayable",
			"type": "function"
		},
		{
			"inputs": [
				{
					"internalType": "uint256",
					"name": "",
					"type": "uint256"
				}
			],
			"name": "listOfPeople",
			"outputs": [
				{
					"internalType": "uint256",
					"name": "favoriteNumber",
					"type": "uint256"
				},
				{
					"internalType": "string",
					"name": "name",
					"type": "string"
				}
			],
			"stateMutability": "view",
			"type": "function"
		},
		{
			"inputs": [
				{
					"internalType": "string",
					"name": "",
					"type": "string"
				}
			],
			"name": "nameToFavoriteNumber",
			"outputs": [
				{
					"internalType": "uint256",
					"name": "",
					"type": "uint256"
				}
			],
			"stateMutability": "view",
			"type": "function"
		},
		{
			"inputs": [],
			"name": "retrieve",
			"outputs": [
				{
					"internalType": "uint256",
					"name": "",
					"type": "uint256"
				}
			],
			"stateMutability": "view",
			"type": "function"
		},
		{
			"inputs": [],
			"name": "sayHello",
			"outputs": [
				{
					"internalType": "string",
					"name": "",
					"type": "string"
				}
			],
			"stateMutability": "pure",
			"type": "function"
		},
		{
			"inputs": [
				{
					"internalType": "uint256",
					"name": "_newNumber",
					"type": "uint256"
				}
			],
			"name": "store",
			"outputs": [],
			"stateMutability": "nonpayable",
			"type": "function"
		}
	]
}